{
  "_format": "hh-sol-artifact-1",
  "contractName": "RentERC721",
  "sourceName": "contracts/RentERC721.sol",
  "abi": [
    {
      "inputs": [],
      "stateMutability": "nonpayable",
      "type": "constructor"
    },
    {
      "anonymous": false,
      "inputs": [
        {
          "indexed": false,
          "internalType": "address",
          "name": "collection_address",
          "type": "address"
        },
        {
          "indexed": false,
          "internalType": "uint256",
          "name": "token_id",
          "type": "uint256"
        },
        {
          "indexed": false,
          "internalType": "uint256",
          "name": "rented_block",
          "type": "uint256"
        }
      ],
      "name": "Colletralwithdrwed",
      "type": "event"
    },
    {
      "anonymous": false,
      "inputs": [
        {
          "indexed": false,
          "internalType": "address",
          "name": "collection_address",
          "type": "address"
        },
        {
          "indexed": false,
          "internalType": "uint256",
          "name": "token_id",
          "type": "uint256"
        }
      ],
      "name": "NFTlistcancelled",
      "type": "event"
    },
    {
      "anonymous": false,
      "inputs": [
        {
          "indexed": false,
          "internalType": "address",
          "name": "collection_address",
          "type": "address"
        },
        {
          "indexed": false,
          "internalType": "address",
          "name": "collateral_token",
          "type": "address"
        },
        {
          "indexed": false,
          "internalType": "uint256",
          "name": "token_id",
          "type": "uint256"
        },
        {
          "indexed": false,
          "internalType": "uint256",
          "name": "maxrent_duration",
          "type": "uint256"
        },
        {
          "indexed": false,
          "internalType": "uint256",
          "name": "collateral_amount",
          "type": "uint256"
        },
        {
          "indexed": false,
          "internalType": "uint256",
          "name": "rent_fee_per_block",
          "type": "uint256"
        }
      ],
      "name": "NFTlisted",
      "type": "event"
    },
    {
      "anonymous": false,
      "inputs": [
        {
          "indexed": false,
          "internalType": "address",
          "name": "collection_address",
          "type": "address"
        },
        {
          "indexed": false,
          "internalType": "uint256",
          "name": "token_id",
          "type": "uint256"
        },
        {
          "indexed": false,
          "internalType": "enum RentERC721.PARAMETER[]",
          "name": "parameter",
          "type": "uint8[]"
        },
        {
          "indexed": false,
          "internalType": "uint256[]",
          "name": "input",
          "type": "uint256[]"
        }
      ],
      "name": "NFTlistmodified",
      "type": "event"
    },
    {
      "anonymous": false,
      "inputs": [
        {
          "indexed": false,
          "internalType": "address",
          "name": "collection_address",
          "type": "address"
        },
        {
          "indexed": false,
          "internalType": "uint256",
          "name": "token_id",
          "type": "uint256"
        },
        {
          "indexed": false,
          "internalType": "address",
          "name": "renter_address",
          "type": "address"
        },
        {
          "indexed": false,
          "internalType": "uint256",
          "name": "rent_duration",
          "type": "uint256"
        },
        {
          "indexed": false,
          "internalType": "uint256",
          "name": "rented_block",
          "type": "uint256"
        },
        {
          "indexed": false,
          "internalType": "uint256",
          "name": "total_amount",
          "type": "uint256"
        }
      ],
      "name": "NFTrented",
      "type": "event"
    },
    {
      "anonymous": false,
      "inputs": [
        {
          "indexed": false,
          "internalType": "address",
          "name": "collection_address",
          "type": "address"
        },
        {
          "indexed": false,
          "internalType": "uint256",
          "name": "token_id",
          "type": "uint256"
        },
        {
          "indexed": false,
          "internalType": "uint256",
          "name": "rented_block",
          "type": "uint256"
        }
      ],
      "name": "NFTreturned",
      "type": "event"
    },
    {
      "anonymous": false,
      "inputs": [
        {
          "indexed": true,
          "internalType": "address",
          "name": "previousOwner",
          "type": "address"
        },
        {
          "indexed": true,
          "internalType": "address",
          "name": "newOwner",
          "type": "address"
        }
      ],
      "name": "OwnershipTransferred",
      "type": "event"
    },
    {
      "anonymous": false,
      "inputs": [
        {
          "indexed": false,
          "internalType": "address",
          "name": "collection_address",
          "type": "address"
        },
        {
          "indexed": false,
          "internalType": "uint256",
          "name": "token_id",
          "type": "uint256"
        },
        {
          "indexed": false,
          "internalType": "address",
          "name": "renter_address",
          "type": "address"
        },
        {
          "indexed": false,
          "internalType": "uint256",
          "name": "rented_block",
          "type": "uint256"
        },
        {
          "indexed": false,
          "internalType": "address",
          "name": "kicker_address",
          "type": "address"
        },
        {
          "indexed": false,
          "internalType": "uint256",
          "name": "kick_date",
          "type": "uint256"
        }
      ],
      "name": "kicked",
      "type": "event"
    },
    {
      "inputs": [
        {
          "internalType": "address",
          "name": "collection_address",
          "type": "address"
        },
        {
          "internalType": "uint256",
          "name": "token_id",
          "type": "uint256"
        }
      ],
      "name": "cancellist",
      "outputs": [],
      "stateMutability": "nonpayable",
      "type": "function"
    },
    {
      "inputs": [
        {
          "internalType": "address",
          "name": "collection_address",
          "type": "address"
        },
        {
          "internalType": "uint256",
          "name": "token_id",
          "type": "uint256"
        }
      ],
      "name": "emergencycancel",
      "outputs": [],
      "stateMutability": "nonpayable",
      "type": "function"
    },
    {
      "inputs": [],
      "name": "execution_delay",
      "outputs": [
        {
          "internalType": "uint256",
          "name": "",
          "type": "uint256"
        }
      ],
      "stateMutability": "view",
      "type": "function"
    },
    {
      "inputs": [],
      "name": "fee_collector",
      "outputs": [
        {
          "internalType": "address",
          "name": "",
          "type": "address"
        }
      ],
      "stateMutability": "view",
      "type": "function"
    },
    {
      "inputs": [],
      "name": "fee_denominator",
      "outputs": [
        {
          "internalType": "uint256",
          "name": "",
          "type": "uint256"
        }
      ],
      "stateMutability": "view",
      "type": "function"
    },
    {
      "inputs": [
        {
          "internalType": "address",
          "name": "collection_address",
          "type": "address"
        },
        {
          "internalType": "uint256",
          "name": "token_id",
          "type": "uint256"
        }
      ],
      "name": "kick",
      "outputs": [],
      "stateMutability": "nonpayable",
      "type": "function"
    },
    {
      "inputs": [],
      "name": "kick_incentive",
      "outputs": [
        {
          "internalType": "uint256",
          "name": "",
          "type": "uint256"
        }
      ],
      "stateMutability": "view",
      "type": "function"
    },
    {
      "inputs": [
        {
          "internalType": "address",
          "name": "collection_address",
          "type": "address"
        },
        {
          "internalType": "address",
          "name": "_collateral_token",
          "type": "address"
        },
        {
          "internalType": "uint256",
          "name": "token_id",
          "type": "uint256"
        },
        {
          "internalType": "uint256",
          "name": "_maxrent_duration",
          "type": "uint256"
        },
        {
          "internalType": "uint256",
          "name": "_collateral_amount",
          "type": "uint256"
        },
        {
          "internalType": "uint256",
          "name": "_rent_fee_per_block",
          "type": "uint256"
        }
      ],
      "name": "listNFT",
      "outputs": [],
      "stateMutability": "nonpayable",
      "type": "function"
    },
    {
      "inputs": [
        {
          "internalType": "address",
          "name": "collection_address",
          "type": "address"
        },
        {
          "internalType": "uint256",
          "name": "token_id",
          "type": "uint256"
        },
        {
          "internalType": "enum RentERC721.PARAMETER[]",
          "name": "_parameter",
          "type": "uint8[]"
        },
        {
          "internalType": "uint256[]",
          "name": "_input",
          "type": "uint256[]"
        }
      ],
      "name": "modifylist",
      "outputs": [],
      "stateMutability": "nonpayable",
      "type": "function"
    },
    {
      "inputs": [
        {
          "internalType": "address",
          "name": "",
          "type": "address"
        },
        {
          "internalType": "uint256",
          "name": "",
          "type": "uint256"
        }
      ],
      "name": "nftinfo",
      "outputs": [
        {
          "components": [
            {
              "internalType": "address",
              "name": "lender_address",
              "type": "address"
            },
            {
              "internalType": "address",
              "name": "collateral_token",
              "type": "address"
            },
            {
              "internalType": "uint256",
              "name": "maxrent_duration",
              "type": "uint256"
            },
            {
              "internalType": "uint256",
              "name": "collateral_amount",
              "type": "uint256"
            },
            {
              "internalType": "uint256",
              "name": "rent_fee_per_block",
              "type": "uint256"
            }
          ],
          "internalType": "struct RentERC721.Lendinfo",
          "name": "lendinfo",
          "type": "tuple"
        },
        {
          "components": [
            {
              "internalType": "address",
              "name": "renter_address",
              "type": "address"
            },
            {
              "internalType": "uint256",
              "name": "rent_duration",
              "type": "uint256"
            },
            {
              "internalType": "uint256",
              "name": "rented_block",
              "type": "uint256"
            },
            {
              "internalType": "uint256",
              "name": "rentfee_amount",
              "type": "uint256"
            }
          ],
          "internalType": "struct RentERC721.Rentinfo",
          "name": "rentinfo",
          "type": "tuple"
        }
      ],
      "stateMutability": "view",
      "type": "function"
    },
    {
      "inputs": [
        {
          "internalType": "address",
          "name": "",
          "type": "address"
        },
        {
          "internalType": "address",
          "name": "",
          "type": "address"
        },
        {
          "internalType": "uint256",
          "name": "",
          "type": "uint256"
        },
        {
          "internalType": "bytes",
          "name": "",
          "type": "bytes"
        }
      ],
      "name": "onERC721Received",
      "outputs": [
        {
          "internalType": "bytes4",
          "name": "",
          "type": "bytes4"
        }
      ],
      "stateMutability": "nonpayable",
      "type": "function"
    },
    {
      "inputs": [],
      "name": "owner",
      "outputs": [
        {
          "internalType": "address",
          "name": "",
          "type": "address"
        }
      ],
      "stateMutability": "view",
      "type": "function"
    },
    {
      "inputs": [],
      "name": "paused",
      "outputs": [
        {
          "internalType": "bool",
          "name": "",
          "type": "bool"
        }
      ],
      "stateMutability": "view",
      "type": "function"
    },
    {
      "inputs": [],
      "name": "platform_fee",
      "outputs": [
        {
          "internalType": "uint256",
          "name": "",
          "type": "uint256"
        }
      ],
      "stateMutability": "view",
      "type": "function"
    },
    {
      "inputs": [],
      "name": "renounceOwnership",
      "outputs": [],
      "stateMutability": "nonpayable",
      "type": "function"
    },
    {
      "inputs": [
        {
          "internalType": "address",
          "name": "collection_address",
          "type": "address"
        },
        {
          "internalType": "uint256",
          "name": "token_id",
          "type": "uint256"
        },
        {
          "internalType": "uint256",
          "name": "_rent_duration",
          "type": "uint256"
        }
      ],
      "name": "rent",
      "outputs": [],
      "stateMutability": "nonpayable",
      "type": "function"
    },
    {
      "inputs": [
        {
          "internalType": "address",
          "name": "collection_address",
          "type": "address"
        },
        {
          "internalType": "uint256",
          "name": "token_id",
          "type": "uint256"
        }
      ],
      "name": "returnNFT",
      "outputs": [],
      "stateMutability": "nonpayable",
      "type": "function"
    },
    {
      "inputs": [
        {
          "internalType": "uint256",
          "name": "_execution_delay",
          "type": "uint256"
        }
      ],
      "name": "set_execution_delay",
      "outputs": [],
      "stateMutability": "nonpayable",
      "type": "function"
    },
    {
      "inputs": [
        {
          "internalType": "address",
          "name": "_fee_collector",
          "type": "address"
        }
      ],
      "name": "set_fee_colletcor",
      "outputs": [],
      "stateMutability": "nonpayable",
      "type": "function"
    },
    {
      "inputs": [
        {
          "internalType": "uint256",
          "name": "_kick_incentive",
          "type": "uint256"
        }
      ],
      "name": "set_kick_incentive",
      "outputs": [],
      "stateMutability": "nonpayable",
      "type": "function"
    },
    {
      "inputs": [
        {
          "internalType": "uint256",
          "name": "_platform_fee",
          "type": "uint256"
        }
      ],
      "name": "set_platform_fee",
      "outputs": [],
      "stateMutability": "nonpayable",
      "type": "function"
    },
    {
      "inputs": [],
      "name": "stopforupgrade",
      "outputs": [
        {
          "internalType": "bool",
          "name": "",
          "type": "bool"
        }
      ],
      "stateMutability": "view",
      "type": "function"
    },
    {
      "inputs": [],
      "name": "togglepaused",
      "outputs": [],
      "stateMutability": "nonpayable",
      "type": "function"
    },
    {
      "inputs": [],
      "name": "togglesstopforupgrade",
      "outputs": [],
      "stateMutability": "nonpayable",
      "type": "function"
    },
    {
      "inputs": [
        {
          "internalType": "address",
          "name": "newOwner",
          "type": "address"
        }
      ],
      "name": "transferOwnership",
      "outputs": [],
      "stateMutability": "nonpayable",
      "type": "function"
    },
    {
      "inputs": [
        {
          "internalType": "address",
          "name": "collection_address",
          "type": "address"
        },
        {
          "internalType": "uint256",
          "name": "token_id",
          "type": "uint256"
        }
      ],
      "name": "withdrawcollateral",
      "outputs": [],
      "stateMutability": "nonpayable",
      "type": "function"
    }
  ],
  "bytecode": "0x608060405261271060038190556004556202a3006005556006805461ffff1916905534801561002d57600080fd5b506100373361004e565b600280546001600160a01b0319163317905561009e565b600080546001600160a01b038381166001600160a01b0319831681178455604051919092169283917f8be0079c531659141344cd1fd0a4f28419497f9722a3daafe3b4186f6b6457e09190a35050565b6125ee806100ad6000396000f3fe608060405234801561001057600080fd5b506004361061018e5760003560e01c806397d51956116100de578063e1b4a08411610097578063f2fde38b11610071578063f2fde38b1461043f578063f5a5453614610452578063f5e8fa2314610465578063faefe1311461047857600080fd5b8063e1b4a08414610410578063ea54396e14610423578063f2167c411461042c57600080fd5b806397d51956146102bf578063a6a15645146102c7578063c955599d146103d8578063ccb568ec146103ea578063cfb551a4146103fd578063dc9d75b01461040657600080fd5b8063434b27c01161014b5780635c975abb116101255780635c975abb14610262578063715018a61461027f57806387e28a30146102875780638da5cb5b1461029a57600080fd5b8063434b27c0146102295780634981f2c51461023c5780634dc32a181461024f57600080fd5b8063014f09d3146101935780630203d8fb1461019d5780630b17e828146101b0578063140b0254146101c3578063150b7a02146101d657806329e6f50314610212575b600080fd5b61019b61048b565b005b61019b6101ab36600461213b565b6104b0565b61019b6101be366004611fdd565b610909565b61019b6101d13660046122a9565b610933565b6101f46101e436600461201e565b630a85bd0160e11b949350505050565b6040516001600160e01b031990911681526020015b60405180910390f35b61021b60055481565b604051908152602001610209565b61019b610237366004612167565b610940565b61019b61024a3660046122a9565b610bbc565b61019b61025d366004612252565b610bc9565b60065461026f9060ff1681565b6040519015158152602001610209565b61019b610fa4565b61019b6102953660046120e2565b610fb8565b6000546001600160a01b03165b6040516001600160a01b039091168152602001610209565b61019b6112c4565b61036d6102d536600461213b565b6001602081815260009384526040808520825292845292829020825160a08101845281546001600160a01b0390811682529282015483168186015260028201548185015260038201546060808301919091526004830154608080840191909152855190810186526005840154909416845260068301549584019590955260078201549383019390935260080154928101929092529082565b6040805183516001600160a01b03908116825260208086015182168184015285840151838501526060808701518185015260809687015196840196909652845190911660a083015283015160c08201529082015160e082015291015161010082015261012001610209565b60065461026f90610100900460ff1681565b61019b6103f836600461213b565b6112e0565b61021b60035481565b61021b620f424081565b61019b61041e36600461213b565b611774565b61021b60045481565b61019b61043a36600461213b565b611b21565b61019b61044d366004611fdd565b611cde565b61019b61046036600461213b565b611d57565b6002546102a7906001600160a01b031681565b61019b6104863660046122a9565b611eb4565b610493611ec1565b6006805461ff001981166101009182900460ff1615909102179055565b60065460ff16156104dc5760405162461bcd60e51b81526004016104d390612444565b60405180910390fd5b6001600160a01b038083166000908152600160208181526040808420868552825292839020835160e081018552815486168186019081529382015486166060808301919091526002830154608080840191909152600384015460a0840152600484015460c0840152948252855194850186526005830154871685526006830154858501526007830154958501959095526008909101549383019390935282018190525190911661059e5760405162461bcd60e51b81526004016104d3906123f6565b6005548160200151602001516105b491906124c0565b6020820151604001516105c79043612519565b1161060a5760405162461bcd60e51b81526020600482015260136024820152722cb7ba9031b0b713ba1035b4b1b5903737bb9760691b60448201526064016104d3565b6000620f424060035483602001516060015161062691906124fa565b61063091906124d8565b90506000620f424060045484602001516060015161064e91906124fa565b61065891906124d8565b90506000818385602001516060015186600001516060015161067a91906124c0565b6106849190612519565b61068e9190612519565b6001600160a01b0380881660009081526001602081815260408084208b8552825280842080546001600160a01b031990811682559381018054851690556002810185905560038101859055600480820186905560058201805490951690945560068101859055600781018590556008019390935588510151915163a9059cbb60e01b815293945091169163a9059cbb9161072c913391879101612321565b602060405180830381600087803b15801561074657600080fd5b505af115801561075a573d6000803e3d6000fd5b505050506040513d601f19601f8201168201806040525081019061077e9190612287565b5083516020810151905160405163a9059cbb60e01b81526001600160a01b039092169163a9059cbb916107b5918590600401612321565b602060405180830381600087803b1580156107cf57600080fd5b505af11580156107e3573d6000803e3d6000fd5b505050506040513d601f19601f820116820180604052508101906108079190612287565b5083516020015160025460405163a9059cbb60e01b81526001600160a01b039283169263a9059cbb92610841929116908790600401612321565b602060405180830381600087803b15801561085b57600080fd5b505af115801561086f573d6000803e3d6000fd5b505050506040513d601f19601f820116820180604052508101906108939190612287565b50602084810151805160409182015182516001600160a01b03808c1682529481018a9052939091169183019190915260608201523360808201524360a08201527fafcbf6825925a3523f6fefd8177e23be198704381655879d96a529947ce8374c9060c0015b60405180910390a1505050505050565b610911611ec1565b600280546001600160a01b0319166001600160a01b0392909216919091179055565b61093b611ec1565b600455565b6001600160a01b038481166000908152600160209081526040808320878452909152902054859185911633146109ad5760405162461bcd60e51b81526020600482015260126024820152714f6e6c79206c69737465722063616e20646f60701b60448201526064016104d3565b60065460ff16156109d05760405162461bcd60e51b81526004016104d390612444565b600654610100900460ff16156109f85760405162461bcd60e51b81526004016104d39061241a565b60005b8451811015610b86576000858281518110610a1857610a18612577565b60200260200101516002811115610a3157610a31612561565b1415610a8057838181518110610a4957610a49612577565b6020908102919091018101516001600160a01b03891660009081526001835260408082208a83529093529190912060020155610b74565b6001858281518110610a9457610a94612577565b60200260200101516002811115610aad57610aad612561565b1415610afc57838181518110610ac557610ac5612577565b6020908102919091018101516001600160a01b03891660009081526001835260408082208a83529093529190912060030155610b74565b6002858281518110610b1057610b10612577565b60200260200101516002811115610b2957610b29612561565b1415610b7457838181518110610b4157610b41612577565b6020908102919091018101516001600160a01b03891660009081526001835260408082208a835290935291909120600401555b80610b7e81612530565b9150506109fb565b507fecde98bb5c64588619970f9b3eb7d4adf853d3add844e201ccbee97623337ac0868686866040516108f9949392919061233a565b610bc4611ec1565b600355565b60065460ff1615610bec5760405162461bcd60e51b81526004016104d390612444565b600654610100900460ff1615610c145760405162461bcd60e51b81526004016104d39061241a565b6001600160a01b038084166000908152600160208181526040808420878552825292839020835160e081018552815486168186019081529382015486166060808301919091526002830154608080840191909152600384015460a0840152600484015460c08401529482528551948501865260058301548716855260068301548585015260078301549585019590955260089091015493830193909352820152805151909116610cd65760405162461bcd60e51b81526004016104d3906123f6565b60008211610d305760405162461bcd60e51b815260206004820152602160248201527f596f752073686f756c642072656e74206d6f7265207468616e203120626c6f636044820152606b60f81b60648201526084016104d3565b602080820151015115610d765760405162461bcd60e51b815260206004820152600e60248201526d105b1c9958591e481c995b9d195960921b60448201526064016104d3565b805160400151821115610dc35760405162461bcd60e51b81526020600482015260156024820152743a37b7903637b7339027232a10323ab930ba34b7b760591b60448201526064016104d3565b805160800151600090610dd79084906124fa565b9050600081836000015160600151610def91906124c0565b6040805160808101825233808252602080830189815243848601908152606085018981526001600160a01b038e81166000908152600186528881208f8252865288902096516005880180546001600160a01b0319169183169190911790559251600687015590516007860155516008909401939093558751015192516323b872dd60e01b81529394509116916323b872dd91610e9191309086906004016122fd565b602060405180830381600087803b158015610eab57600080fd5b505af1158015610ebf573d6000803e3d6000fd5b505050506040513d601f19601f82011682018060405250810190610ee39190612287565b50604051632142170760e11b81526001600160a01b038716906342842e0e90610f1490309033908a906004016122fd565b600060405180830381600087803b158015610f2e57600080fd5b505af1158015610f42573d6000803e3d6000fd5b5050604080516001600160a01b038a1681526020810189905233918101919091526060810187905243608082015260a081018490527f8feab711889522357578c774fafe022bb48e46d3c0aac56334dbb342e614debe925060c00190506108f9565b610fac611ec1565b610fb66000611f1b565b565b60065460ff1615610fdb5760405162461bcd60e51b81526004016104d390612444565b600654610100900460ff16156110035760405162461bcd60e51b81526004016104d39061241a565b6040516331a9108f60e11b8152600481018590526001600160a01b03871690636352211e9060240160206040518083038186803b15801561104357600080fd5b505afa158015611057573d6000803e3d6000fd5b505050506040513d601f19601f8201168201806040525081019061107b9190612001565b6001600160a01b0316336001600160a01b0316146110d35760405162461bcd60e51b81526020600482015260156024820152742cb7ba9030b932903737ba103a34329037bbb732b960591b60448201526064016104d3565b6001600160a01b0386166000908152600160209081526040808320878452909152902060070154156111175760405162461bcd60e51b81526004016104d3906123c8565b6040518060a00160405280336001600160a01b03168152602001866001600160a01b031681526020018481526020018381526020018281525060016000886001600160a01b03166001600160a01b03168152602001908152602001600020600086815260200190815260200160002060000160008201518160000160006101000a8154816001600160a01b0302191690836001600160a01b0316021790555060208201518160010160006101000a8154816001600160a01b0302191690836001600160a01b03160217905550604082015181600201556060820151816003015560808201518160040155905050856001600160a01b03166342842e0e3330876040518463ffffffff1660e01b8152600401611234939291906122fd565b600060405180830381600087803b15801561124e57600080fd5b505af1158015611262573d6000803e3d6000fd5b5050604080516001600160a01b03808b16825289166020820152908101879052606081018690526080810185905260a081018490527f695d0521c8335747d18a47090111dae2a87e6b11ad19bf163331c843ff0eab07925060c00190506108f9565b6112cc611ec1565b6006805460ff19811660ff90911615179055565b60065460ff16156113035760405162461bcd60e51b81526004016104d390612444565b6001600160a01b038083166000908152600160208181526040808420868552825292839020835160e081018552815486168186019081529382015486166060808301919091526002830154608080840191909152600384015460a0840152600484015460c084015294825285519485018652600583015487168552600683015485850152600783015495850195909552600890910154938301939093528201819052519091166113c55760405162461bcd60e51b81526004016104d3906123f6565b602080820151908101516040909101516113df9043612519565b11156114185760405162461bcd60e51b81526020600482015260086024820152672a34b6b2b7baba1760c11b60448201526064016104d3565b6020810151516001600160a01b0316331461146a5760405162461bcd60e51b81526020600482015260126024820152712cb7ba9030b932903737ba103932b73a32b960711b60448201526064016104d3565b6000620f424060035483602001516060015161148691906124fa565b61149091906124d8565b90506000818360200151606001516114a89190612519565b6001600160a01b03861660008181526001602081815260408084208a855290915280832080546001600160a01b03199081168255928101805484169055600281018490556003810184905560048082018590556005820180549094169093556006810184905560078101849055600801929092558651519151632142170760e11b815293945091926342842e0e9261154692339290918a91016122fd565b600060405180830381600087803b15801561156057600080fd5b505af1158015611574573d6000803e3d6000fd5b50508451602081015160609091015160405163a9059cbb60e01b81526001600160a01b03909216935063a9059cbb92506115b391339190600401612321565b602060405180830381600087803b1580156115cd57600080fd5b505af11580156115e1573d6000803e3d6000fd5b505050506040513d601f19601f820116820180604052508101906116059190612287565b5082516020810151905160405163a9059cbb60e01b81526001600160a01b039092169163a9059cbb9161163c918590600401612321565b602060405180830381600087803b15801561165657600080fd5b505af115801561166a573d6000803e3d6000fd5b505050506040513d601f19601f8201168201806040525081019061168e9190612287565b5082516020015160025460405163a9059cbb60e01b81526001600160a01b039283169263a9059cbb926116c8929116908690600401612321565b602060405180830381600087803b1580156116e257600080fd5b505af11580156116f6573d6000803e3d6000fd5b505050506040513d601f19601f8201168201806040525081019061171a9190612287565b5060208084015160409081015181516001600160a01b0389168152928301879052908201527faee93b99254589251a27670197c70e85892b49d0ea7d87336cb911c057568122906060015b60405180910390a15050505050565b60065460ff16156117975760405162461bcd60e51b81526004016104d390612444565b6001600160a01b038083166000908152600160208181526040808420868552825292839020835160e081018552815486168186019081529382015486166060808301919091526002830154608080840191909152600384015460a0840152600484015460c084015294825285519485018652600583015487168552600683015485850152600783015495850195909552600890910154938301939093528201819052519091166118595760405162461bcd60e51b81526004016104d3906123f6565b602080820151908101516040909101516118739043612519565b116118b65760405162461bcd60e51b815260206004820152601360248201527229ba34b636103932b73a34b733903a34b6b29760691b60448201526064016104d3565b8051516001600160a01b031633146119055760405162461bcd60e51b81526020600482015260126024820152712cb7ba9030b932903737ba103437b63232b960711b60448201526064016104d3565b6000620f424060035483602001516060015161192191906124fa565b61192b91906124d8565b905060008183602001516060015184600001516060015161194c91906124c0565b6119569190612519565b6001600160a01b0380871660009081526001602081815260408084208a8552825280842080546001600160a01b031990811682559381018054851690556002810185905560038101859055600480820186905560058201805490951690945560068101859055600781018590556008019390935587510151915163a9059cbb60e01b815293945091169163a9059cbb916119f4913391869101612321565b602060405180830381600087803b158015611a0e57600080fd5b505af1158015611a22573d6000803e3d6000fd5b505050506040513d601f19601f82011682018060405250810190611a469190612287565b5082516020015160025460405163a9059cbb60e01b81526001600160a01b039283169263a9059cbb92611a80929116908690600401612321565b602060405180830381600087803b158015611a9a57600080fd5b505af1158015611aae573d6000803e3d6000fd5b505050506040513d601f19601f82011682018060405250810190611ad29190612287565b5060208084015160409081015181516001600160a01b0389168152928301879052908201527ffd1dbb824d524931631e00a588f92dda2a5bc6b18d4207e776fec6397c20d5f890606001611765565b6001600160a01b03828116600090815260016020908152604080832085845290915290205483918391163314611b8e5760405162461bcd60e51b81526020600482015260126024820152714f6e6c79206c69737465722063616e20646f60701b60448201526064016104d3565b60065460ff1615611bb15760405162461bcd60e51b81526004016104d390612444565b6001600160a01b038416600090815260016020908152604080832086845290915290206007015415611bf55760405162461bcd60e51b81526004016104d3906123c8565b6001600160a01b038416600081815260016020818152604080842088855290915280832080546001600160a01b03199081168255928101805490931690925560028201839055600382018390556004918201929092559051632142170760e11b81526342842e0e91611c6d91309133918991016122fd565b600060405180830381600087803b158015611c8757600080fd5b505af1158015611c9b573d6000803e3d6000fd5b505050507fc329a6a4d2418f30063dec946bb517b997482d14bc41e62b9df014a9bfc7fd278484604051611cd0929190612321565b60405180910390a150505050565b611ce6611ec1565b6001600160a01b038116611d4b5760405162461bcd60e51b815260206004820152602660248201527f4f776e61626c653a206e6577206f776e657220697320746865207a65726f206160448201526564647265737360d01b60648201526084016104d3565b611d5481611f1b565b50565b611d5f611ec1565b6001600160a01b038216600090815260016020908152604080832084845290915290206007015415611da35760405162461bcd60e51b81526004016104d3906123c8565b6001600160a01b03808316600081815260016020908152604080832086845290915290819020549051632142170760e11b815291926342842e0e92611df0923092169086906004016122fd565b600060405180830381600087803b158015611e0a57600080fd5b505af1158015611e1e573d6000803e3d6000fd5b5050506001600160a01b038316600090815260016020818152604080842086855290915280832080546001600160a01b0319908116825592810180549093169092556002820183905560038201839055600490910191909155517fc329a6a4d2418f30063dec946bb517b997482d14bc41e62b9df014a9bfc7fd279150611ea89084908490612321565b60405180910390a15050565b611ebc611ec1565b600555565b6000546001600160a01b03163314610fb65760405162461bcd60e51b815260206004820181905260248201527f4f776e61626c653a2063616c6c6572206973206e6f7420746865206f776e657260448201526064016104d3565b600080546001600160a01b038381166001600160a01b0319831681178455604051919092169283917f8be0079c531659141344cd1fd0a4f28419497f9722a3daafe3b4186f6b6457e09190a35050565b600082601f830112611f7c57600080fd5b81356020611f91611f8c8361249c565b61246b565b80838252828201915082860187848660051b8901011115611fb157600080fd5b60005b85811015611fd057813584529284019290840190600101611fb4565b5090979650505050505050565b600060208284031215611fef57600080fd5b8135611ffa816125a3565b9392505050565b60006020828403121561201357600080fd5b8151611ffa816125a3565b6000806000806080858703121561203457600080fd5b843561203f816125a3565b9350602085810135612050816125a3565b935060408601359250606086013567ffffffffffffffff8082111561207457600080fd5b818801915088601f83011261208857600080fd5b81358181111561209a5761209a61258d565b6120ac601f8201601f1916850161246b565b915080825289848285010111156120c257600080fd5b808484018584013760008482840101525080935050505092959194509250565b60008060008060008060c087890312156120fb57600080fd5b8635612106816125a3565b95506020870135612116816125a3565b95989597505050506040840135936060810135936080820135935060a0909101359150565b6000806040838503121561214e57600080fd5b8235612159816125a3565b946020939093013593505050565b6000806000806080858703121561217d57600080fd5b8435612188816125a3565b93506020858101359350604086013567ffffffffffffffff808211156121ad57600080fd5b818801915088601f8301126121c157600080fd5b81356121cf611f8c8261249c565b8082825285820191508585018c878560051b88010111156121ef57600080fd5b600095505b8386101561221f5780356003811061220b57600080fd5b8352600195909501949186019186016121f4565b5096505050606088013592508083111561223857600080fd5b505061224687828801611f6b565b91505092959194509250565b60008060006060848603121561226757600080fd5b8335612272816125a3565b95602085013595506040909401359392505050565b60006020828403121561229957600080fd5b81518015158114611ffa57600080fd5b6000602082840312156122bb57600080fd5b5035919050565b600081518084526020808501945080840160005b838110156122f2578151875295820195908201906001016122d6565b509495945050505050565b6001600160a01b039384168152919092166020820152604081019190915260600190565b6001600160a01b03929092168252602082015260400190565b6001600160a01b0385168152602080820185905260806040830181905284519083018190526000918581019160a085019084805b828110156123a65785516003811061239457634e487b7160e01b83526021600452602483fd5b8452948401949284019260010161236e565b50505084810360608601526123bb81876122c2565b9998505050505050505050565b602080825260149082015273616c72656164792072656e746564206974656d2160601b604082015260600190565b6020808252600a9082015269139bdd081b1a5cdd195960b21b604082015260600190565b60208082526010908201526f73746f7020666f72207570677261646560801b604082015260600190565b6020808252600d908201526c1cde5cdd195b481c185d5cd959609a1b604082015260600190565b604051601f8201601f1916810167ffffffffffffffff811182821017156124945761249461258d565b604052919050565b600067ffffffffffffffff8211156124b6576124b661258d565b5060051b60200190565b600082198211156124d3576124d361254b565b500190565b6000826124f557634e487b7160e01b600052601260045260246000fd5b500490565b60008160001904831182151516156125145761251461254b565b500290565b60008282101561252b5761252b61254b565b500390565b60006000198214156125445761254461254b565b5060010190565b634e487b7160e01b600052601160045260246000fd5b634e487b7160e01b600052602160045260246000fd5b634e487b7160e01b600052603260045260246000fd5b634e487b7160e01b600052604160045260246000fd5b6001600160a01b0381168114611d5457600080fdfea26469706673582212201d2f5cdccbc43de00da37be9c10b41a1c09767d409ea5eab4f480253e06fdd1864736f6c63430008050033",
  "linkReferences": {},
  "deployedLinkReferences": {}
}